:020000040000FA
:06000000B6EF10F0120043
:020006001200E6
:060008000EEF00F01200F3
:02000E000100EF
:0C0010009E210000DA0000000400000047
:04001C00DACFE4FF54
:10002000E2CFDAFFE9CFE4FFEACFE4FFF6CFE4FF67
:10003000F7CFE4FFF5CFE4FFF3CFE4FFF4CFE4FF25
:10004000FACFE4FF00EE00F0100EE80403E3EECF79
:10005000E4FFFBD700EE10F00F0EE80403E3EECF51
:10006000E4FFFBD700C1E4FF01C1E4FFE652D8EC96
:1000700007F0E552E5CF01F1E5CF00F100EE1EF00B
:100080000F0EE80403E3E5CFEDFFFBD700EE0FF022
:10009000100EE80403E3E5CFEDFFFBD7E5CFFAFF51
:1000A000E5CFF4FFE5CFF3FFE5CFF5FFE5CFF7FFB1
:1000B000E5CFF6FFE5CFEAFFE5CFE9FFE5CFDAFFD1
:1000C00011006F0E926E806A800EC26EC00EC16EFD
:1000D000816AA60E946E826ADF0E956EA06A9D6A92
:1000E000BB0E936ED09EF28CF290F296F28E1200BE
:1000F000D9CFE6FFE1CFD9FF070EE1260101146950
:10010000156916691769DDDFCAEC0BF00101046B94
:10011000056B066B076B086B096B0A6B0B6B0C6B43
:100120000D6B0E6B0F6B106B116B126B136B050E5F
:10013000E66EAA0EE66E040EE66E43EC08F0E5529B
:10014000E552E55275EC0AF0000926E00F0EE126B3
:100150007BEC0AF0EECF2EF1EECF2FF1EECF30F1A7
:10016000EECF31F1EECF32F1EECF33F1EECF34F10D
:10017000EECF35F1EECF36F1EECF37F1EECF38F1ED
:10018000EECF39F1EECF3AF1EECF3BF1EECF3CF1CD
:10019000106E0F0EE15E105075EC0AF0000926E0BB
:1001A0000F0EE1267BEC0AF0EECF2EF1EECF2FF111
:1001B000EECF30F1EECF31F1EECF32F1EECF33F1C1
:1001C000EECF34F1EECF35F1EECF36F1EECF37F1A1
:1001D000EECF38F1EECF39F1EECF3AF1EECF3BF181
:1001E000EECF3CF1106E0F0EE15E1050D00EE66EB9
:1001F000070EE66EC9EC0EF0E552E5520101140E51
:100200003D6F3F6B4B914B934A6B010E496F3DC164
:10021000E6FF3EC1E6FF3FC1E6FF40C1E6FF41C148
:10022000E6FF42C1E6FF43C1E6FF44C1E6FF45C128
:10023000E6FF46C1E6FF47C1E6FF48C1E6FFE66EBE
:100240004AC1E6FF4BC1E6FF24EC09F0106E0F0E29
:10025000E15E1050080EE66EE66AC9EC0EF0E5525B
:10026000E5523DC1E6FF3EC1E6FF3FC1E6FF40C1AA
:10027000E6FF41C1E6FF42C1E6FF43C1E6FF44C1DC
:10028000E6FF45C1E6FF46C1E6FF47C1E6FF48C1BC
:10029000E6FF49C1E6FF4AC1E6FF4BC1E6FF24EC99
:1002A00009F0106E0F0EE15E1050080EE66EE66A61
:1002B000C9EC0EF0E552E5520101140E3D6F3F6BA3
:1002C0004B914B934A6B080E496F040EDB6ADBCFF0
:1002D00010F0180EE76E1018E8AE02D0E73402D026
:1002E000E750105C01E3A2D0040EDBCFF6FFF76A03
:1002F000F6BEF7680A0EF702F3CFF7FFF602F3CF68
:10030000F6FFF450F7264C0EF6261A0EF722080ECA
:10031000F626000EF7220800F5CF3EF1040EDBCFE3
:10032000F6FFF76AF6BEF7680A0EF702F3CFF7FF9B
:10033000F602F3CFF6FFF450F7264C0EF6261A0E0F
:10034000F722090EF626000EF7220800F5CF40F13D
:10035000050EDB6ADBCF10F0080EE76E1018E8AE72
:1003600002D0E73402D0E750105C32E2040EDBCF5B
:1003700010F0116A10BE11680A0E1102F3CF11F0CD
:100380001002F3CF10F0F45011264C0E10261A0E66
:100390001122050EDBCF12F0136A12BE1368105043
:1003A0001224F66E11501320F76E0800F550E66E19
:1003B000050EDBCFE9FFEA6AE9BEEA68410EE926ED
:1003C000010EEA22E552E750EF6E050EDB2AC2D796
:1003D0003DC1E6FF3EC1E6FF3FC1E6FF40C1E6FF8B
:1003E00041C1E6FF42C1E6FF43C1E6FF44C1E6FF6B
:1003F00045C1E6FF46C1E6FF47C1E6FF48C1E6FF4B
:1004000049C1E6FF4AC1E6FF4BC1E6FF24EC09F013
:10041000106E0F0EE15E10500A0EE66EE66AC9EC31
:100420000EF0E552E552040EDB2A51D70101150EFC
:100430003D6F040EDB6ADBCF10F0200EE76E101864
:10044000E8AE02D0E73402D0E750105C01E3A2D05E
:10045000040EDBCFF6FFF76AF6BEF7680A0EF70266
:10046000F3CFF7FFF602F3CFF6FFF450F7263C0E7A
:10047000F6261B0EF722080EF626000EF7220800BD
:10048000F5CF3EF1040EDBCFF6FFF76AF6BEF76854
:100490000A0EF702F3CFF7FFF602F3CFF6FFF450A0
:1004A000F7263C0EF6261B0EF722090EF626000E46
:1004B000F7220800F5CF40F1050EDB6ADBCF10F024
:1004C000080EE76E1018E8AE02D0E73402D0E7500D
:1004D000105C32E2040EDBCF10F0116A10BE11681E
:1004E0000A0E1102F3CF11F01002F3CF10F0F45006
:1004F00011263C0E10261B0E1122050EDBCF12F02A
:10050000136A12BE136810501224F66E1150132095
:10051000F76E0800F550E66E050EDBCFE9FFEA6ADC
:10052000E9BEEA68410EE926010EEA22E552E750EB
:10053000EF6E050EDB2AC2D73DC1E6FF3EC1E6FFE6
:100540003FC1E6FF40C1E6FF41C1E6FF42C1E6FF11
:1005500043C1E6FF44C1E6FF45C1E6FF46C1E6FFF1
:1005600047C1E6FF48C1E6FF49C1E6FF4AC1E6FFD1
:100570004BC1E6FF24EC09F0106E0F0EE15E105047
:100580000A0EE66EE66AC9EC0EF0E552E552040E7C
:10059000DB2A51D7120EE66E4C0EE66EE9EC0CF03B
:1005A000E552E552DFC01AF1E0C01BF1120EE66E13
:1005B0004E0EE66EE9EC0CF0E552E552DFC01EF19E
:1005C000E0C01FF1F4DA75EC0AF0000901E03BD954
:1005D00081B89BD00E0EE66E4C0EE66EE9EC0CF088
:1005E000E552E552F3CFDEFFF4CFDDFFDFC01CF1B3
:1005F000E0C01DF1120EE66E4C0EE66EE9EC0CF05A
:10060000E552E552F3CFDEFFF4CFDDFFDFC01AF194
:10061000E0C01BF1CCDA01014B914B934A6B010E08
:100620003F6F150E3D6F010E496F020E406F010EB8
:10063000F36E020EF3CFDBFF030EDB6A060EDB6AFE
:10064000DBCF10F0100EE76E1018E8AE02D0E734E2
:1006500002D0E750105C59E201011C51010B43E04C
:100660000A0EE66EE66AC9EC0EF0E552E552020E9D
:10067000DB5001011A150001106E030EDB50010161
:100680001B150001116E1050111003E00101300E16
:1006900002D00101310E416F060EDBCF3EF13DC1AC
:1006A000E6FF3EC1E6FF3FC1E6FF40C1E6FF41C1B4
:1006B000E6FF42C1E6FF43C1E6FF44C1E6FF45C194
:1006C000E6FF46C1E6FF47C1E6FF48C1E6FF49C174
:1006D000E6FF4AC1E6FF4BC1E6FF24EC09F0106ECD
:1006E0000F0EE15E1050D89001011D331C33D9501C
:1006F000020FE96EDACFEAFF010ED890EE36ED3642
:10070000E806FBE1060EDB2A9BD781BA5CD70E0E0A
:10071000E66E4E0EE66EE9EC0CF0E552E552F3CFD4
:10072000DEFFF4CFDDFFDFC020F1E0C021F1120ECB
:10073000E66E4E0EE66EE9EC0CF0E552E552F3CFB4
:10074000DEFFF4CFDDFFDFC01EF1E0C01FF12FDAC6
:1007500001014B914B934A6B010E3F6F150E3D6F9C
:10076000010E496F020E406F010EF36E020EF3CFC1
:10077000DBFF030EDB6A060EDB6ADBCF10F0100E28
:10078000E76E1018E8AE02D0E73402D0E750105CF4
:1007900001E319D701012051010B43E00A0EE66E77
:1007A000E66AC9EC0EF0E552E552020EDB5001019B
:1007B0001E150001106E030EDB5001011F15000114
:1007C000116E1050111003E00101300E02D0010132
:1007D000310E416F060EDB50100F3E6F3DC1E6FF3C
:1007E000E66E3FC1E6FF40C1E6FF41C1E6FF42C100
:1007F000E6FF43C1E6FF44C1E6FF45C1E6FF46C14F
:10080000E6FF47C1E6FF48C1E6FF49C1E6FF4AC12E
:10081000E6FF4BC1E6FF24EC09F0106E0F0EE15E1F
:100820001050D890010121332033D950020FE96EC6
:10083000DACFEAFF010ED890EE36ED36E806FBE19E
:10084000060EDB2A9AD70F0EE1267BEC0AF0EECFDC
:100850002EF1EECF2FF1EECF30F1EECF31F1EECF22
:1008600032F1EECF33F1EECF34F1EECF35F1EECF02
:1008700036F1EECF37F1EECF38F1EECF39F1EECFE2
:100880003AF1EECF3BF1EECF3CF1106E0F0EE15E90
:100890001050200E01012F5D01E388D1300501E0E9
:1008A00085D1020E315D01E081D1300E325D02E171
:1008B000228D05D0310E325D01E078D1229D2F517D
:1008C000170A01E172D1010A01E163D1030A01E1D2
:1008D00053D1010A01E143D1070A01E133D1010AF1
:1008E00001E123D1030A01E113D1010A01E103D19E
:1008F0001F0A01E1F3D0010A01E1E3D0030A01E19B
:10090000D3D0010A01E1C2D0070A01E1B1D0010A46
:1009100001E1A0D0030A01E18FD0010A01E180D0FA
:100920000F0A01E16FD0010A5FE0030A4FE0010AFC
:100930003FE0070A2FE0010A1FE0030A0FE0010A67
:1009400001E033D12451010B106E2251400B01E024
:10095000010E101801E129D14F7F27D12451020B3C
:1009600001E0010E106E2251400B01E0010E101843
:1009700001E11BD14F7D19D12451040B01E0010E7F
:10098000106E2251400B01E0010E101801E10DD153
:100990004F7B0BD12451080B01E0010E106E225148
:1009A000400B01E0010E101801E1FFD04F79FDD09E
:1009B0002451100B01E0010E106E2251400B01E09A
:1009C000010E101801E1F1D04F77EFD02451200B28
:1009D00001E0010E106E2251400B01E0010E1018D3
:1009E00001E1E3D04F75E1D02451400B01E0010E4D
:1009F000106E2251400B01E0010E101801E1D5D01C
:100A00004F73D3D02451800B01E0010E106E2251A0
:100A1000400B01E0010E101801E1C7D04F71C5D0A5
:100A20002551010B106E2251400B01E0010E1018F0
:100A300001E1BBD04E7FB9D02551020B01E0010E80
:100A4000106E2251400B01E0010E101801E1ADD0F3
:100A50004E7DABD02551040B01E0010E106E2251EA
:100A6000400B01E0010E101801E19FD04E7B9DD09C
:100A70002551080B01E0010E106E2251400B01E0E0
:100A8000010E101801E191D04E798FD02551100B35
:100A900001E0010E106E2251400B01E0010E101812
:100AA00001E183D04E7781D02551200B01E0010E6A
:100AB000106E2251400B01E0010E101876E04E75C9
:100AC00074D02551400B01E0010E106E2251400BF5
:100AD00001E0010E101869E04E7367D02551800BBC
:100AE00001E0010E106E2251400B01E0010E1018C2
:100AF0005CE04E715AD02651800B01E0010E106E61
:100B00002251400B01E0010E10184FE04D7F4DD0F7
:100B10002651400B01E0010E106E2251400B01E006
:100B2000010E101842E04D7D40D02651200B01E00F
:100B3000010E106E2251400B01E0010E101835E03D
:100B40004D7B33D02651100B01E0010E106E225167
:100B5000400B01E0010E101828E04D7926D02651F7
:100B6000080B01E0010E106E2251400B01E0010E56
:100B700010181BE04D7719D02651040B01E0010E2F
:100B8000106E2251400B01E0010E10180EE04D7561
:100B90000CD02651020B01E0010E106E2251400BC9
:100BA00001E0010E101801E04D7301D81200D9CFF9
:100BB000E6FFE1CFD9FF050EE12601014F51020BFF
:100BC00001E0010E106E1B51010B1018249DE8B0BE
:100BD000248D4E51400B01E0010E106E1A51200B76
:100BE00001E0010E10182593E8B025834F51040B46
:100BF00001E0010E106E1B51020B01E0010E1018F6
:100C0000249BE8B0248B4E51800B01E0010E106E46
:100C10001A51100B01E0010E10182591E8B0258142
:100C20004F51080B01E0010E156E1E51080B01E03B
:100C3000010E146E1E51200B01E0010E136E1E51A9
:100C4000100B01E0010E126E1E51400B01E0010E6F
:100C5000116E1E51800B01E0010E106E1B51040B32
:100C600001E0010E10181118121813181418151895
:100C70002499E8B024894F51100B01E0010E106E49
:100C80001B51080B01E0010E10182497E8B02487CF
:100C90004F51200B01E0010E106E1B51100B01E0B3
:100CA000010E10182495E8B024854E51020B01E086
:100CB000010E126E1A51400B01E0010E116E1A5115
:100CC000800B01E0010E106E1F51010B101811185E
:100CD0001218259DE8B0258D4E51040B01E0010E40
:100CE000106E1F51020B01E0010E1018259BE8B099
:100CF000258B4E51080B01E0010E106E1F51040BA5
:100D000001E0010E10182599E8B025894E51100B0D
:100D100001E0010E106E1F51080B01E0010E1018CA
:100D20002597E8B025874E51200B01E0010E106E8B
:100D30001F51100B01E0010E10182595E8B0258514
:100D400024C1E6FF0A0EE66E400EE66E82EC0CF061
:100D5000E552E552E55225C1E6FF0A0EE66E420E67
:100D6000E66E82EC0CF0E552E552E55201014B9142
:100D70004B934A6B010E3F6F140E3D6F010E496F8E
:100D8000020E406F24511419106E25511519116E61
:100D9000020E10C0DBFF030E11C0DBFF24C114F1F3
:100DA00025C115F1010EDE6EDD6AD950020FE96E24
:100DB000DACFEAFFEE50ED106AE0040EDB6A100EA7
:100DC000F36E040EDBCFF4FFF350F45C60E2020E2E
:100DD000DB50010B41E00A0EE66EE66AC9EC0EF04C
:100DE000E552E552DE50010124150001106EDD5080
:100DF000010125150001116E1050111003E00101D1
:100E0000300E02D00101310E416F040EDBCF3EF1F6
:100E10003DC1E6FF3EC1E6FF3FC1E6FF40C1E6FF40
:100E200041C1E6FF42C1E6FF43C1E6FF44C1E6FF20
:100E300045C1E6FF46C1E6FF47C1E6FF48C1E6FF00
:100E400049C1E6FF4AC1E6FF4BC1E6FF24EC09F0C9
:100E5000106E0F0EE15E1050D950020FE96EDACF1E
:100E6000EAFF010E0F0B06E0EC52D890ED32EF32A4
:100E7000E806FAE1D9CFE9FFDACFEAFF010ED89010
:100E8000EE36ED36E806FBE1040EDB2A98D70101C9
:100E900026511619106E27511719116E020E10C027
:100EA000DBFF030E11C0DBFF26C116F127C117F1CE
:100EB000010EDE6EDD6AD950020FE96EDACFEAFF6D
:100EC000EE50ED106AE0040EDB6A100EF36E040EB5
:100ED000DBCFF4FFF350F45C60E2020EDB50010B59
:100EE00041E00A0EE66EE66AC9EC0EF0E552E55204
:100EF000DE50010126150001106EDD50010127159D
:100F00000001116E1050111003E00101300E02D0EB
:100F10000101310E416F040EDB50100F3E6F3DC1D9
:100F2000E6FFE66E3FC1E6FF40C1E6FF41C1E6FFD6
:100F300042C1E6FF43C1E6FF44C1E6FF45C1E6FF0B
:100F400046C1E6FF47C1E6FF48C1E6FF49C1E6FFEB
:100F50004AC1E6FF4BC1E6FF24EC09F0106E0F0E0C
:100F6000E15E1050D950020FE96EDACFEAFF010EB0
:100F70000F0B06E0EC52D890ED32EF32E806FAE1C2
:100F8000D9CFE9FFDACFEAFF010ED890EE36ED3681
:100F9000E806FBE1040EDB2A98D7050EE15C02E2CD
:100FA000E16AE552E16EE552E7CFD9FF1200120087
:100FB000D9CFE6FFE1CFD9FFE652A450A3145EE0FB
:100FC0006F50DF6EA450010B08E0A350010B05E049
:100FD000A490F00E6F140C090AD0A450020B0AE082
:100FE000A350020B07E0A492F00E6F140A096F6E73
:100FF000A1D842D0A450040B0EE0A350040B0BE088
:10100000F00E6F1408096F6ED7D8000902E0A394A0
:1010100033D0A49431D0A450080B0EE0A350080B99
:101020000BE0F00E6F1406096F6EC6D8000902E0DF
:10103000A39622D0A49620D0A450100B0EE0A3506B
:10104000100B0BE0F00E6F1404096F6EB5D8000999
:1010500002E0A39811D0A4980FD0A450200B05E073
:10106000A350200B02E0A49A07D0A450400B04E048
:10107000A350400B01E0A49CDF506F6EE552E55297
:10108000E7CFD9FF1200D9CFE6FFE1CFD9FF939484
:101090009386A36AA46A3F0E6F1480096F6EE00EF8
:1010A0006E148008FCE1FE0EDB50706EFD0EDB500E
:1010B000716EFC0EDB50726E440E606E0F01400EBE
:1010C000506F036B026B080E016F140E006F076BFD
:1010D000066B080E056F140E046F0B6B0A6B080E7F
:1010E000096F08690F6B0E6B0D6F0C69136B126B38
:1010F000116F140E106F176B166B080E156F140E10
:10110000146F1B6B1A6B196B18691F6B1E6B1D6BB1
:101110001C69200E736E1F0E6F146F6EE00E6E143E
:10112000FDE1030EA36E180EA46E000EE552E7CF8C
:10113000D9FF1200D9CFE6FFE1CFD9FFE652000177
:10114000DB2B040EE76EDB19E8AE02D0E73402D0E9
:10115000E750DB5D01E3DB6BDF6A0E0EDF5C26E24E
:10116000DF50EA6A600FE96E0F0EEA22EF50E66E7A
:10117000DBC0E9FFEA6AE9BEEA680E0EEA02F3CFD5
:10118000EAFFE902F3CFE9FFF450EA26600EE92610
:10119000000EEA22DF500F01E924E96E000EEA207A
:1011A000EA6EE552E750EF6EDF2AD7D7609EE55230
:1011B000E552E7CFD9FF1200D9CFE6FFE1CFD9FF43
:1011C000E6520001DC51DD5D39E0DC2B040EE76EF8
:1011D000DC19E8AE02D0E73402D0E750DC5D01E371
:1011E000DC6BDF6A0E0EDF5C26E2DCC0E9FFEA6A38
:1011F000E9BEEA680E0EEA02F3CFEAFFE902F3CF96
:10120000E9FFF450EA26980EE926000EEA22DF50A4
:101210000F01E924E96E000EEA20EA6EEF50E66E57
:10122000DF50EA6A600FE96E0F0EEA22E552E750DE
:10123000EF6EDF2AD7D76086000E01D0010EE5528F
:10124000E552E7CFD9FF1200D9CFE6FFE1CFD9FFB2
:10125000020EE1260001DC05DD5D05E0030EDD5D2B
:1012600004E1DC5102E1010E34D1030EE76EDD1919
:10127000E8AE02D0E73402D0E750DD5D02E3DF6A7A
:1012800002D0DD29DF6EFC0EDB50080805E2080EF7
:10129000F36EFC0EF3CFDBFFDF500E0DF3CFE9FF53
:1012A000F4CFEAFF980EE926000EEA22050EE926A1
:1012B000000EEA22FC0EDBCFEFFFD950F00FE96EF3
:1012C000FF0EDA20EA6E0E0EE926000EEA22EF503B
:1012D000020B45E1DF500E0DF3CFE9FFF4CFEAFF3B
:1012E000980EE926000EEA22050EE926000EEA22F3
:1012F000EF9C010EDB6AFC0EDB50F36E010EDBCFC0
:10130000F4FFF350F45C3AE2D950F40F126EFF0E82
:10131000DA20136E010EDB500F011224E96E000E6D
:101320001320EA6EEF50E66EDF500E0DF3CFE9FFAB
:10133000F4CFEAFF980EE926000EEA22060EE9260F
:10134000000EEA22010EDB50E924E96E000EEA20CD
:10135000EA6EE552E750EF6E010EDB2ACCD7DF5084
:101360000E0DF3CFE9FFF4CFEAFF980EE926000E49
:10137000EA22050EE926000EEA22EF8CDF500E0D60
:10138000F3CFE9FFF4CFEAFF980EE926000EEA2238
:10139000EE52F00EDBCFEFFFDF500E0DF3CFE9FF83
:1013A000F4CFEAFF980EE926000EEA22030EE926A2
:1013B000000EEA22F10EDBCFEFFFF20EDB50106ED3
:1013C000DF500E0DF3CFE9FFF4CFEAFF980EE926C8
:1013D000000EEA22020EE926000EEA221050070B48
:1013E000F36EF346F346F346F346F3461F0EEF144F
:1013F000F310EF6EDF500E0DF3CFE9FFF4CFEAFFED
:10140000980EE926000EEA22040EE926000EEA22D2
:10141000F30EDBCFEFFFDF500E0DF3CFE9FFF4CF7C
:10142000EAFF980EE926000EEA22020EE926000ED7
:10143000EA22EF86D950F00FE96EFF0EDA20EA6E4D
:101440000E0EE926000EEA22EF50010B106EDF505F
:101450000E0DF3CFE9FFF4CFEAFF980EE926000E58
:10146000EA22020EE926000EEA221050010BF36E6A
:10147000FE0EEF14F310EF6EDF500E0DF3CFE9FF09
:10148000F4CFEAFF980EE926000EEA22020EE926C2
:10149000000EEA22EF92FD0EDB50030BE66EDF50EA
:1014A0000E0DF3CFE9FFF4CFEAFF980EE926000E08
:1014B000EA22E552E750EF6EDFCFDDF0A3B402D0B1
:1014C000A38406D0A3B602D0A38602D0A3A8A38883
:1014D000000E106E020EE15C02E2E16AE552E16E7E
:1014E0001050E552E7CFD9FF12000001DA51DB5D61
:1014F00001E0010C000CD9CFE6FFE1CFD9FF110EBE
:10150000E126030E0001E76EDA19E8AE02D0E734F7
:1015100002D0E750DA5D03E30F0EDB6A05D0DA296B
:10152000E76E0F0EE7CFDBFFDB500E0DF3CFE9FFC9
:10153000F4CFEAFF600EE926000EEA22050EE92646
:10154000000EEA22EF500F0BE76E0C0EE7CFDBFF29
:101550000F0EDB500E0DF3CFE9FFF4CFEAFF600E64
:10156000E926000EEA22EF50080B03E00E0EDB82A4
:1015700036D00E0EDB92100EDB6A0C0EDB50F36ED3
:10158000100EDBCFF4FFF350F45C29E20F0EDB50BA
:101590000E0DF3CFE9FFF4CFEAFF600EE926000E4F
:1015A000EA22060EE926000EEA22100EDB500F0199
:1015B000E924E96E000EEA20EA6EEF50E66ED9509B
:1015C000040F106E100EDB501024E96E000EDA20AE
:1015D000EA6EE552E750EF6E100EDB2ACED70F0E03
:1015E000DB500E0DF3CFE9FFF4CFEAFF600EE926E2
:1015F000000EEA22EE52EFCFDFFF0F0EDB500E0D92
:10160000F3CFE9FFF4CFEAFF600EE926000EEA22ED
:10161000030EE926000EEA22010EEFCFDBFF0F0ECC
:10162000DB500E0DF3CFE9FFF4CFEAFF600EE926A1
:10163000000EEA22020EE926000EEA22EF50E00B2D
:10164000E842E842E842E842E842E76E020EE7CFAD
:10165000DBFF0F0EDB500E0DF3CFE9FFF4CFEAFFF7
:10166000600EE926000EEA22040EE926000EEA22A8
:10167000030EEFCFDBFF0F0EDB500E0DF3CFE9FFB4
:10168000F4CFEAFF600EE926000EEA22020EE926F8
:10169000000EEA22EF50010B106ED9CFE9FFDACF2E
:1016A000EAFF0E0EE926000EEA221050010BF36E3F
:1016B000FE0EEF14F310EF6EF00E6F146F6E0F0E40
:1016C000DBCFDAF0D9CFE9FFDACFEAFFEECF10F0C7
:1016D000EECF11F0EECF12F0EECF13F0EECF14F00C
:1016E000EECF15F0EECF16F0EECF17F0EECF18F0EC
:1016F000EECF19F0EECF1AF0EECF1BF0EECF1CF0CC
:10170000EECF1DF0EFCF1EF0D9CFE9FFDACFEAFF21
:10171000ED50ED501EC0EDFF1DC0EDFF1CC0EDFFF4
:101720001BC0EDFF1AC0EDFF19C0EDFF18C0EDFFA3
:1017300017C0EDFF16C0EDFF15C0EDFF14C0EDFFA3
:1017400013C0EDFF12C0EDFF11C0EDFF10C0EFFFA1
:10175000110EE15C02E2E16AE552E16EE552E7CF8B
:10176000D9FF1200D9CFE6FFE1CFD9FF1F0E6F14CA
:10177000106EFE0EDB50E00B10106F6EE00E6E145C
:10178000106EFE0EDB50E00B105CF8E1E552E7CF87
:04179000D9FF12006B
:0C1794008B908B928B94E668E66A4C0EFA
:1017A000E66EB0D8E552E552E552E668010EE66E07
:1017B0004C0EE66EA7D8E552E552E552E6680C0EEF
:1017C000E66E4C0EE66E9ED8E552E552E552E668AE
:1017D0000D0EE66E4C0EE66E95D8E552E552E552DA
:1017E000400EE66E0A0EE66E4C0EE66E8BD8E552A3
:1017F000E552E552400EE66E0B0EE66E4C0EE66EBE
:1018000081D8E552E552E552E668040EE66E4C0ECC
:10181000E66E78D8E552E552E552E668050EE66ECA
:101820004C0EE66E6FD8E552E552E552E668E66A80
:101830004E0EE66E67D8E552E552E552E668010EB7
:10184000E66E4E0EE66E5ED8E552E552E552E6686B
:101850000C0EE66E4E0EE66E55D8E552E552E55298
:10186000E6680D0EE66E4E0EE66E4CD8E552E55279
:10187000E552400EE66E0A0EE66E4E0EE66E42D859
:10188000E552E552E552400EE66E0B0EE66E4E0E48
:10189000E66E38D8E552E552E552E668040EE66E8B
:1018A0004E0EE66E2FD8E552E552E552E668050E7B
:1018B000E66E4E0EE66E26D8E552E552E552E66833
:1018C0000A0EE66E400EE66E1DD8E552E552E55270
:1018D000E66AE66A400EE66E15D8E552E552E55234
:1018E000E6680A0EE66E420EE66E0CD8E552E55248
:1018F000E552E66AE66A420EE66E04D8E552E55223
:10190000E5521200D9CFE6FFE1CFD9FF50EC0FF03E
:10191000FE0EDBCFE6FF5DEC0FF0E55287EC0FF03B
:101920000001DE6FFD0EDBCFE6FF5DEC0FF0E55250
:1019300087EC0FF00001DE6FFC0EDBCFE6FF5DEC05
:101940000FF0E55287EC0FF00001DE6FEFEC0FF0C7
:10195000E552E7CFD9FF1200D9CFE6FFE1CFD9FF9B
:10196000020EE12650EC0FF0FE0EDBCFE6FF5DEC41
:101970000FF0E55287EC0FF00001DE6FFD0EDBCFBC
:10198000E6FF5DEC0FF0E55287EC0FF00001DE6F33
:10199000A3EC0FF0FE0EDB500109E66E5DEC0FF0DC
:1019A000E55287EC0FF00001DE6FB7EC0FF0DF6E51
:1019B00011EC10F0EFEC0FF0DF50106E020EE15C56
:1019C00002E2E16AE552E16E1050E552E7CFD9FF3D
:1019D0001200D9CFE6FFE1CFD9FFE65250EC0FF06D
:1019E000FE0EDBCFE6FF5DEC0FF0E55287EC0FF06B
:1019F0000001DE6FFD0EDBCFE6FF5DEC0FF0E55280
:101A000087EC0FF00001DE6FA3EC0FF0FE0EDB5051
:101A10000109E66E5DEC0FF0E55287EC0FF0000176
:101A2000DE6FB7EC0FF00001DF6F03EC10F0B7ECE6
:101A30000FF00001E06F11EC10F0EFEC0FF0F36A23
:0C1A4000F46AE552E552E7CFD9FF12002E
:041A4C0078202020BE
:101A500020202020000378202020202020200103A7
:101A600074756B6F72203220020374756B6F722075
:101A7000312003036C657063736F20200403456499
:101A8000696E6120202005035065746920202020A4
:101A900006037820202020202020070345646920A9
:101AA0004C454420080350657469204C45440903A3
:101AB00068617A74617274200A03574320202020E1
:101AC00020200B03667572646F2020200C03686170
:101AD0006C6F202020200D03646F6C676F7A6F207D
:101AE0000E0378202020202020200F0378202020A3
:101AF00020202020100378202020202020201103E7
:101B00007820202020202020120378202020202050
:101B10002020130378202020202020201403782068
:101B20002020202020201503782020202020202085
:101B3000160378202020202020201703202020209A
:101B4000202020200003202020202020202001030E
:101B500020202020202020200203202020202020C0
:101B60002020030320202020202020200403506573
:101B70007469206A202005036C2D682062616C2046
:101B80000603642D502062616C2007032020202072
:101B900020202020080320202020202020200903AE
:101BA00020202020202020200A0374756B6F7220D3
:101BB00032200B0374756B6F722031200C036C2D77
:101BC00068206A2020200D034564696E6120202072
:101BD0000E03506574692062616C0F032020202081
:101BE000202020201003202020202020202011034E
:101BF0002020202020202020120368616C6F2062AA
:101C0000616C1303642D502062616C201403642DF9
:101C100045206A6F626215036C206C656E74206AE1
:101C200016036C2D662062616C2017032020202093
:101C300020202020180320202020202020201903ED
:101C400020202020202020201A0368617A742E682A
:101C50002E201B0357432020202020201C036C2D06
:101C600066206A6F62621D0368616C6F206A2020C3
:0C1C70001E03642D70206A6F62621F0367
:041C7C00D9CFE6FFD7
:101C8000E1CFD9FF040EE12601D079D0FB0EDBCFE6
:101C900010F0FC0EDBCF11F0FD0EDBCF12F0FE0ECC
:101CA000DBCF13F0280E096E0A6A0B6A0C6A10C0AB
:101CB00004F011C005F012C006F013C007F06EEC7E
:101CC00010F000C010F001C011F002C012F003C00B
:101CD00013F010C0DFFF010E11C0DBFF020E12C0B7
:101CE000DBFF030E13C0DBFFD9CFE9FFDACFEAFF3A
:101CF000AF0EEE5E000EEE5A000EEE5A000EEE5AD9
:101D0000DECF05F0DECF06F0DECF07F0DDCF08F046
:101D1000DD52DD520834000E081809E6D8802D0E79
:101D20000554000E0654000E0754000E085401E33B
:101D300026D0DECF05F0DECF06F0DECF07F0DDCF18
:101D400008F0DD52DD520834000E081809E6D8808C
:101D5000000E0554000E0654000E0754000E0854E1
:101D60000EE20000D9CFE9FFDACFEAFF2A0EEE5EDD
:101D7000000EEE5A000EEE5A000EEE5ADAD7040E9E
:101D8000E15C02E2E16AE552E16EE552E7CFD9FF9C
:101D90001200D9CFE6FFE1CFD9FF040EE126FD0EF8
:101DA000DBCF10F0FE0EDBCF11F0126A136AA00E2B
:101DB000096E0F0E0A6E0B6A0C6A10C004F011C097
:101DC00005F012C006F013C007F06EEC10F000C072
:101DD00010F001C011F002C012F003C013F010C0E7
:101DE000DFFF010E11C0DBFF020E12C0DBFF030E8E
:101DF00013C0DBFFD9CFE9FFDACFEAFFAA0EEE5E10
:101E0000000EEE5A000EEE5A000EEE5ADECF05F02E
:101E1000DECF06F0DECF07F0DDCF08F0DD52DD5279
:101E20000834000E081809E6D880C30E0554000EC9
:101E30000654000E0754000E085402E327D026D0A3
:101E4000DECF05F0DECF06F0DECF07F0DDCF08F005
:101E5000DD52DD520834000E081809E6D880000E65
:101E60000554000E0654000E0754000E08540EE2EE
:101E70000000D9CFE9FFDACFEAFF270EEE5E000EB1
:101E8000EE5A000EEE5A000EEE5ADAD7040EE15C5E
:101E900002E2E16AE552E16EE552E7CFD9FF1200B6
:101EA00094800A0EE66EC4EC10F0E55294920A0E8D
:101EB000E66EC4EC10F0E5521200D9CFE6FFE1CF98
:101EC000D9FFE652DF6A080EDF5C1BE2FE0EDBAED6
:101ED00003D09490948202D0949094920A0EE66E6D
:101EE000C4EC10F0E55294800A0EE66EC4EC10F0DB
:101EF000E552FE0EDB50020DFE0EF3CFDBFFDF2AB4
:101F0000E2D7000EE552E552E7CFD9FF1200D9CF54
:101F1000E6FFE1CFD9FFE652949094820A0EE66E76
:101F2000C4EC10F0E55294800A0EE66EC4EC10F09A
:101F3000E55282A202D0010E01D0000EE552E55218
:101F4000E7CFD9FF1200949094820A0EE66EC4EC9B
:101F500010F0E55294800A0EE66EC4EC10F0E552E3
:101F600094920A0EE66EC4EC10F0E5521200D9CF3E
:101F7000E6FFE1CFD9FF020EE126320EE66EC4EC99
:101F800010F0E552010EDB6A080EF36E010EDBCF96
:101F9000F4FFF350F45C16E2949094820A0EE66E1D
:101FA000C4EC10F0E55294800A0EE66EC4EC10F01A
:101FB000E552DF9EDF4682A202D0000EDF80010ED6
:101FC000DB2AE2D7DF50106E020EE15C02E2E16A2A
:101FD000E552E16E1050E552E7CFD9FF1200949020
:101FE00094920A0EE66EC4EC10F0E55294800A0E4C
:101FF000E66EC4EC10F0E55294820A0EE66EC4EC74
:1020000010F0E5521200949094920A0EE66EC4EC21
:1020100010F0E55294800A0EE66EC4EC10F0E55222
:102020001200949094820A0EE66EC4EC10F0E55211
:0E20300094800A0EE66EC4EC10F0E552120029
:02203E000E0E84
:10204000F66E000EF76E000EF86E00010900F550F6
:10205000D56F0900F550D66F03E1D56701D03DD0AB
:102060000900F550D06F0900F550D16F0900F55007
:10207000D26F09000900F550E96E0900F550EA6ECB
:10208000090009000900F550D36F0900F550D46F1D
:1020900009000900F6CFD7F0F7CFD8F0F8CFD9F084
:1020A000D0C0F6FFD1C0F7FFD2C0F8FF0001D35374
:1020B00002E1D45307E00900F550EE6ED307F8E2D1
:1020C000D407F9D7D7C0F6FFD8C0F7FFD9C0F8FFBB
:0C20D0000001D507000ED65BBFD7120040
:0420DC0004500902A1
:1020E000F3CF00F0F4CF01F00A02F3500126000E06
:1020F000F420026E04500B02F3500226000EF4206E
:10210000036E04500C02F350032605500902F350ED
:102110000126F4500222000E032205500A02F35059
:102120000226F450032205500B02F35003260650FA
:102130000902F3500226F450032206500A02F3501B
:0C214000032607500902F350032612008A
:04214C00000EF36E20
:1021500000EE00F0060E01D81200EA6002D0EE6A2E
:0C216000FCD7F350E9601200EE6AFCD7D7
:04216C0015EE00F07C
:1021700025EE00F0F86A0F9C1FEC10F003EC00F065
:0821800078EC00F0FBD712001F
:08218800FF0EE350E84E1200C7
:0E219000000000D000D000D0E82EFAD71200D8
:02219E0000003F
:0221A00000003D
:020000040030CA
:0100010022DC
:010002000CF1
:010003000EEE
:010006008178
:010008000FE8
:01000900C036
:01000A000FE6
:01000B00E014
:01000C000FE4
:01000D0040B2
:00000001FF
